:100000000C942A000C9447000C9447000C94470071
:100010000C9447000C9447000C9447000C94470044
:100020000C9447000C9447000C9447000C94470034
:100030000C9447000C9447000C9447000C94470024
:100040000C9447000C9447000C9447000C94470014
:100050000C94470011241FBECFE5D8E0DEBFCDBF12
:1000600010E0A0E6B0E0EEE7F5E002C005900D92EA
:10007000A036B107D9F720E0A0E6B0E001C01D929C
:10008000AE37B207E1F70E9485010C94BD020C94D3
:10009000000041E063E081E00E9409028FE097E206
:1000A0000197F1F700C0000040E063E081E00E94AA
:1000B00009020895CF93C82F8BB38F709C2F907F28
:1000C000892B8BBB40E061E081E00E94090240E0A7
:1000D00062E081E00E9409022FEF30E782E02150C8
:1000E00030408040E1F700C000000E9449002BB37F
:1000F00030E1C39FC0011124922F9F70892B8BBBCD
:1001000040E061E081E00E94090240E062E081E0BD
:100110000E9409028FEF90E722E08150904020403A
:10012000E1F700C000000E9449008FE097E20197CC
:10013000F1F700C00000CF910895CF93C82F8BB383
:100140008F709C2F907F892B8BBB41E061E081E019
:100150000E94090240E062E081E00E9409020E94E0
:1001600049002BB330E1C39FC0011124922F9F702F
:10017000892B8BBB41E061E081E00E94090240E0F5
:1001800062E081E00E9409020E9449008FE097E24C
:100190000197F1F700C00000CF91089541E061E0C0
:1001A00081E00E94930141E062E081E00E949301BE
:1001B00041E063E081E00E94930140E064E080E080
:1001C0000E94930140E065E080E00E94930140E0DE
:1001D00066E080E00E94930140E067E080E00E94DA
:1001E00093018FE097E20197F1F700C0000040E033
:1001F00061E081E00E94090241E062E081E00E944A
:1002000009020E94490041E064E080E00E949301FD
:1002100041E065E080E00E94930141E066E080E01B
:100220000E94930141E067E080E00E94930140E07A
:1002300062E081E00E940902089581E00E945A0074
:1002400008950E94CE0087B38E6087BB8AB3806F0B
:100250008ABB0E941D018FE39CE90197F1F700C062
:10026000000082E00E945A0088E20E945A008FE05B
:100270000E945A0086E00E945A0080E80E945A00BC
:100280000895CF93DF93C82FD62F811106C0603118
:1002900020F480E8860F0E945A00C13031F4D0313A
:1002A00020F480EC8D0F0E945A00DF91CF910895C9
:1002B000EF92FF920F931F93CF93DF937C01C0E0E7
:1002C000D0E015C0C031D10521F460E081E00E948A
:1002D0004101C032D10531F40E941D0160E080E08F
:1002E0000E944101F80180810E949D0021968701B2
:1002F0000C0F1D1FF80180818111E4CFDF91CF9198
:100300001F910F91FF90EF9008950E947F020E942D
:1003100021016EE180E690E00E94A10280E690E07B
:100320000E945801F6CF843008F072C0683008F09F
:100330006FC0423008F06CC0813001F130F0823083
:10034000B1F1833009F44CC0089541110CC02AB3B7
:1003500081E090E002C0880F991F6A95E2F78095CE
:1003600082238ABB08952AB381E090E002C0880FFF
:10037000991F6A95E2F7822B8ABB089541110CC040
:1003800027B381E090E002C0880F991F6A95E2F7D9
:100390008095822387BB089527B381E090E002C057
:1003A000880F991F6A95E2F7822B87BB0895411148
:1003B0000CC024B381E090E002C0880F991F6A95B9
:1003C000E2F78095822384BB089524B381E090E016
:1003D00002C0880F991F6A95E2F7822B84BB0895AB
:1003E00041110CC021B381E090E002C0880F991F39
:1003F0006A95E2F78095822381BB089521B381E05D
:1004000090E002C0880F991F6A95E2F7822B81BBAA
:100410000895843008F072C0683008F06FC0423030
:1004200008F06CC0813001F130F08230B1F18330DE
:1004300009F44CC0089541110CC02BB381E090E049
:1004400002C0880F991F6A95E2F7809582238BBBC3
:1004500008952BB381E090E002C0880F991F6A9540
:10046000E2F7822B8BBB089541110CC028B381E0C9
:1004700090E002C0880F991F6A95E2F78095822369
:1004800088BB089528B381E090E002C0880F991FCF
:100490006A95E2F7822B88BB089541110CC025B301
:1004A00081E090E002C0880F991F6A95E2F780957D
:1004B000822385BB089525B381E090E002C0880FB8
:1004C000991F6A95E2F7822B85BB089541110CC0F4
:1004D00022B381E090E002C0880F991F6A95E2F78D
:1004E0008095822382BB089522B381E090E002C010
:1004F000880F991F6A95E2F7822B82BB089583E3E8
:1005000089B98BB18D7F8BB980B58F7B80BD80B56C
:100510008F7E80BD80B58F7D80BD8AB18B7F8AB98B
:1005200080B5846080BD80B5826080BD8AB18860FE
:100530008AB98AB180618AB908955F9BFECF8CB178
:1005400008950F931F93CF93DF938C01D62FC0E0B4
:1005500009C00E949D02F801EC0FF11D80838D30CF
:1005600019F0CF5FCD17A8F3F801EC0FF11D108241
:0E057000DF91CF911F910F910895F894FFCF66
:00000001FF
